{
  "_format": "hh-sol-artifact-1",
  "contractName": "PolicyMaker",
  "sourceName": "contracts/PolicyMaker.sol",
  "abi": [
    {
      "inputs": [
        {
          "internalType": "address",
          "name": "initialOwner",
          "type": "address"
        }
      ],
      "stateMutability": "nonpayable",
      "type": "constructor"
    },
    {
      "anonymous": false,
      "inputs": [
        {
          "indexed": true,
          "internalType": "address",
          "name": "previousOwner",
          "type": "address"
        },
        {
          "indexed": true,
          "internalType": "address",
          "name": "newOwner",
          "type": "address"
        }
      ],
      "name": "OwnershipTransferred",
      "type": "event"
    },
    {
      "anonymous": false,
      "inputs": [
        {
          "indexed": false,
          "internalType": "uint32",
          "name": "policyId",
          "type": "uint32"
        },
        {
          "indexed": false,
          "internalType": "uint256",
          "name": "coverageAmount",
          "type": "uint256"
        },
        {
          "indexed": false,
          "internalType": "uint256",
          "name": "initialPremiumFee",
          "type": "uint256"
        },
        {
          "indexed": false,
          "internalType": "uint32",
          "name": "duration",
          "type": "uint32"
        }
      ],
      "name": "PolicyCreated",
      "type": "event"
    },
    {
      "anonymous": false,
      "inputs": [
        {
          "indexed": false,
          "internalType": "uint32",
          "name": "policyId",
          "type": "uint32"
        }
      ],
      "name": "PolicyDeactivated",
      "type": "event"
    },
    {
      "anonymous": false,
      "inputs": [
        {
          "indexed": false,
          "internalType": "uint32",
          "name": "policyId",
          "type": "uint32"
        },
        {
          "indexed": false,
          "internalType": "uint256",
          "name": "coverageAmount",
          "type": "uint256"
        },
        {
          "indexed": false,
          "internalType": "uint256",
          "name": "initialPremiumFee",
          "type": "uint256"
        },
        {
          "indexed": false,
          "internalType": "uint32",
          "name": "duration",
          "type": "uint32"
        }
      ],
      "name": "PolicyUpdated",
      "type": "event"
    },
    {
      "anonymous": false,
      "inputs": [
        {
          "indexed": true,
          "internalType": "uint32",
          "name": "policyId",
          "type": "uint32"
        },
        {
          "indexed": true,
          "internalType": "address",
          "name": "claimant",
          "type": "address"
        },
        {
          "indexed": false,
          "internalType": "uint256",
          "name": "amount",
          "type": "uint256"
        },
        {
          "indexed": false,
          "internalType": "bool",
          "name": "isPremium",
          "type": "bool"
        }
      ],
      "name": "PremiumPaid",
      "type": "event"
    },
    {
      "inputs": [],
      "name": "calculateCoverageFactor",
      "outputs": [
        {
          "internalType": "uint256",
          "name": "",
          "type": "uint256"
        }
      ],
      "stateMutability": "pure",
      "type": "function"
    },
    {
      "inputs": [
        {
          "internalType": "uint32",
          "name": "_policyId",
          "type": "uint32"
        },
        {
          "internalType": "address",
          "name": "_policyHolder",
          "type": "address"
        }
      ],
      "name": "calculatePremium",
      "outputs": [
        {
          "internalType": "uint256",
          "name": "",
          "type": "uint256"
        }
      ],
      "stateMutability": "view",
      "type": "function"
    },
    {
      "inputs": [
        {
          "internalType": "uint32",
          "name": "_policyId",
          "type": "uint32"
        },
        {
          "internalType": "address",
          "name": "_policyHolder",
          "type": "address"
        }
      ],
      "name": "calculateTotalCoverage",
      "outputs": [
        {
          "internalType": "uint256",
          "name": "",
          "type": "uint256"
        }
      ],
      "stateMutability": "view",
      "type": "function"
    },
    {
      "inputs": [
        {
          "internalType": "uint256",
          "name": "_coverageAmount",
          "type": "uint256"
        },
        {
          "internalType": "uint256",
          "name": "_initialPremiumFee",
          "type": "uint256"
        },
        {
          "internalType": "uint256",
          "name": "_initialCoveragePercentage",
          "type": "uint256"
        },
        {
          "internalType": "uint256",
          "name": "_premiumRate",
          "type": "uint256"
        },
        {
          "internalType": "uint32",
          "name": "_duration",
          "type": "uint32"
        },
        {
          "internalType": "uint32",
          "name": "_penaltyRate",
          "type": "uint32"
        },
        {
          "internalType": "uint32",
          "name": "_monthsGracePeriod",
          "type": "uint32"
        }
      ],
      "name": "createPolicy",
      "outputs": [],
      "stateMutability": "nonpayable",
      "type": "function"
    },
    {
      "inputs": [
        {
          "internalType": "uint32",
          "name": "_policyId",
          "type": "uint32"
        }
      ],
      "name": "deactivatePolicy",
      "outputs": [],
      "stateMutability": "nonpayable",
      "type": "function"
    },
    {
      "inputs": [
        {
          "internalType": "uint32",
          "name": "policyId",
          "type": "uint32"
        },
        {
          "internalType": "address",
          "name": "policyHolder",
          "type": "address"
        },
        {
          "internalType": "uint256",
          "name": "payoutAmount",
          "type": "uint256"
        }
      ],
      "name": "handlePayout",
      "outputs": [],
      "stateMutability": "nonpayable",
      "type": "function"
    },
    {
      "inputs": [
        {
          "internalType": "uint32",
          "name": "_policyId",
          "type": "uint32"
        }
      ],
      "name": "isActive",
      "outputs": [
        {
          "internalType": "bool",
          "name": "",
          "type": "bool"
        }
      ],
      "stateMutability": "view",
      "type": "function"
    },
    {
      "inputs": [
        {
          "internalType": "uint32",
          "name": "_policyId",
          "type": "uint32"
        },
        {
          "internalType": "address",
          "name": "_claimant",
          "type": "address"
        }
      ],
      "name": "isPolicyOwner",
      "outputs": [
        {
          "internalType": "bool",
          "name": "",
          "type": "bool"
        }
      ],
      "stateMutability": "view",
      "type": "function"
    },
    {
      "inputs": [
        {
          "internalType": "uint32",
          "name": "",
          "type": "uint32"
        },
        {
          "internalType": "address",
          "name": "",
          "type": "address"
        }
      ],
      "name": "lastPremiumPaidTime",
      "outputs": [
        {
          "internalType": "uint256",
          "name": "",
          "type": "uint256"
        }
      ],
      "stateMutability": "view",
      "type": "function"
    },
    {
      "inputs": [],
      "name": "nextPolicyId",
      "outputs": [
        {
          "internalType": "uint32",
          "name": "",
          "type": "uint32"
        }
      ],
      "stateMutability": "view",
      "type": "function"
    },
    {
      "inputs": [],
      "name": "owner",
      "outputs": [
        {
          "internalType": "address",
          "name": "",
          "type": "address"
        }
      ],
      "stateMutability": "view",
      "type": "function"
    },
    {
      "inputs": [
        {
          "internalType": "uint32",
          "name": "_policyId",
          "type": "uint32"
        }
      ],
      "name": "payInitialPremium",
      "outputs": [],
      "stateMutability": "payable",
      "type": "function"
    },
    {
      "inputs": [
        {
          "internalType": "uint32",
          "name": "_policyId",
          "type": "uint32"
        }
      ],
      "name": "payPremium",
      "outputs": [],
      "stateMutability": "payable",
      "type": "function"
    },
    {
      "inputs": [
        {
          "internalType": "uint32",
          "name": "",
          "type": "uint32"
        }
      ],
      "name": "policies",
      "outputs": [
        {
          "internalType": "uint256",
          "name": "coverageAmount",
          "type": "uint256"
        },
        {
          "internalType": "uint256",
          "name": "initialPremiumFee",
          "type": "uint256"
        },
        {
          "internalType": "uint256",
          "name": "initialCoveragePercentage",
          "type": "uint256"
        },
        {
          "internalType": "uint256",
          "name": "premiumRate",
          "type": "uint256"
        },
        {
          "internalType": "uint32",
          "name": "duration",
          "type": "uint32"
        },
        {
          "internalType": "bool",
          "name": "isActive",
          "type": "bool"
        },
        {
          "internalType": "uint32",
          "name": "penaltyRate",
          "type": "uint32"
        },
        {
          "internalType": "uint32",
          "name": "monthsGracePeriod",
          "type": "uint32"
        }
      ],
      "stateMutability": "view",
      "type": "function"
    },
    {
      "inputs": [
        {
          "internalType": "uint32",
          "name": "",
          "type": "uint32"
        },
        {
          "internalType": "address",
          "name": "",
          "type": "address"
        }
      ],
      "name": "policyOwners",
      "outputs": [
        {
          "internalType": "bool",
          "name": "",
          "type": "bool"
        }
      ],
      "stateMutability": "view",
      "type": "function"
    },
    {
      "inputs": [
        {
          "internalType": "uint32",
          "name": "",
          "type": "uint32"
        },
        {
          "internalType": "address",
          "name": "",
          "type": "address"
        }
      ],
      "name": "premiumsPaid",
      "outputs": [
        {
          "internalType": "uint256",
          "name": "",
          "type": "uint256"
        }
      ],
      "stateMutability": "view",
      "type": "function"
    },
    {
      "inputs": [],
      "name": "renounceOwnership",
      "outputs": [],
      "stateMutability": "nonpayable",
      "type": "function"
    },
    {
      "inputs": [
        {
          "internalType": "address",
          "name": "_payoutContract",
          "type": "address"
        }
      ],
      "name": "setPayoutContract",
      "outputs": [],
      "stateMutability": "nonpayable",
      "type": "function"
    },
    {
      "inputs": [
        {
          "internalType": "address",
          "name": "newOwner",
          "type": "address"
        }
      ],
      "name": "transferOwnership",
      "outputs": [],
      "stateMutability": "nonpayable",
      "type": "function"
    },
    {
      "inputs": [
        {
          "internalType": "uint32",
          "name": "_policyId",
          "type": "uint32"
        },
        {
          "internalType": "uint256",
          "name": "_coverageAmount",
          "type": "uint256"
        },
        {
          "internalType": "uint256",
          "name": "_initialPremiumFee",
          "type": "uint256"
        },
        {
          "internalType": "uint32",
          "name": "_duration",
          "type": "uint32"
        },
        {
          "internalType": "uint32",
          "name": "_monthsGracePeriod",
          "type": "uint32"
        },
        {
          "internalType": "uint32",
          "name": "_penaltyRate",
          "type": "uint32"
        }
      ],
      "name": "updatePolicy",
      "outputs": [],
      "stateMutability": "nonpayable",
      "type": "function"
    }
  ],
  "bytecode": "0x60806040526001600760006101000a816200001962000183565b8163ffffffff021916908363ffffffff1602179062000037620001e8565b50505034801562000052576000806200004f6200024f565b50505b5060405162002f9438038062002f94833981810160405260208110156200008357600080620000806200024f565b50505b81019080805190602001909291905050506000620000a66200017160201b60201c565b9050806000806101000a81620000bb62000183565b8173ffffffffffffffffffffffffffffffffffffffff021916908373ffffffffffffffffffffffffffffffffffffffff16021790620000f9620001e8565b5050508073ffffffffffffffffffffffffffffffffffffffff16600073ffffffffffffffffffffffffffffffffffffffff167f8be0079c531659141344cd1fd0a4f28419497f9722a3daafe3b4186f6b6457e060405160405180910390a350600180819062000167620001e8565b505050506200031e565b60005a6200017e620002bf565b905090565b6303daa959598160e01b8152836004820152602081602483336000905af158600e01573d6000803e3d6000fd5b3d6001141558600a015760016000f35b8051935060005b6040811015620001e357600081830152602081019050620001c7565b505050565b6322bd64c0598160e01b8152836004820152846024820152600081604483336000905af158600e01573d6000803e3d6000fd5b3d6001141558600a015760016000f35b60005b60408110156200024a576000818301526020810190506200022e565b505050565b632a2a7adb598160e01b8152600481016020815285602082015260005b868110156200028c5780860151816040840101526020810190506200026c565b506020828760640184336000905af158600e01573d6000803e3d6000fd5b3d6001141558600a015760016000f35b505050565b6373509064598160e01b8152602081600483336000905af158600e01573d6000803e3d6000fd5b3d6001141558600a015760016000f35b8051935060005b60408110156200031957600081830152602081019050620002fd565b505050565b612c66806200032e6000396000f3fe60806040526004361061011f5760003560e01c80638da5cb5b116100a0578063cd8ee73a11610064578063cd8ee73a14610764578063ec2e866f146107e1578063f207aa101461086a578063f2fde38b1461089e578063f352ac94146109015761011f565b80638da5cb5b1461058f5780639f4d2722146105d9578063b5bd6c0514610674578063b92b2dc7146106c7578063cad0b8db1461072a5761011f565b80632d68fd36116100e75780632d68fd36146103615780634153cd3a146103e85780635bb67c671461047f5780635e19b30514610506578063715018a61461056f5761011f565b80630c32b25a1461012d5780630dce26511461016a578063160f71c1146101f15780631e7192ae1461022e57806328ab58fb146102da575b60008061012a612908565b50505b6101686004803603602081101561014c57600080610149612908565b50505b81019080803563ffffffff16906020019092919050505061098a565b005b34801561017f5760008061017c612908565b50505b506101db6004803603604081101561019f5760008061019c612908565b50505b81019080803563ffffffff169060200190929190803573ffffffffffffffffffffffffffffffffffffffff169060200190929190505050610ca3565b6040518082815260200191505060405180910390f35b61022c600480360360208110156102105760008061020d612908565b50505b81019080803563ffffffff1690602001909291905050506110d1565b005b34801561024357600080610240612908565b50505b5061027f6004803603602081101561026357600080610260612908565b50505b81019080803563ffffffff16906020019092919050505061141f565b604051808981526020018881526020018781526020018681526020018563ffffffff16815260200184151581526020018363ffffffff1681526020018263ffffffff1681526020019850505050505050505060405180910390f35b3480156102ef576000806102ec612908565b50505b5061034b6004803603604081101561030f5760008061030c612908565b50505b81019080803563ffffffff169060200190929190803573ffffffffffffffffffffffffffffffffffffffff1690602001909291905050506114dc565b6040518082815260200191505060405180910390f35b34801561037657600080610373612908565b50505b506103d26004803603604081101561039657600080610393612908565b50505b81019080803563ffffffff169060200190929190803573ffffffffffffffffffffffffffffffffffffffff169060200190929190505050611508565b6040518082815260200191505060405180910390f35b3480156103fd576000806103fa612908565b50505b5061047d600480360360c081101561041d5760008061041a612908565b50505b81019080803563ffffffff1690602001909291908035906020019092919080359060200190929190803563ffffffff169060200190929190803563ffffffff169060200190929190803563ffffffff169060200190929190505050611534565b005b34801561049457600080610491612908565b50505b506104f0600480360360408110156104b4576000806104b1612908565b50505b81019080803563ffffffff169060200190929190803573ffffffffffffffffffffffffffffffffffffffff1690602001909291905050506117c2565b6040518082815260200191505060405180910390f35b34801561051b57600080610518612908565b50505b506105576004803603602081101561053b57600080610538612908565b50505b81019080803563ffffffff169060200190929190505050611a12565b60405180821515815260200191505060405180910390f35b34801561058457600080610581612908565b50505b5061058d611a52565b005b3480156105a4576000806105a1612908565b50505b506105ad611bff565b604051808273ffffffffffffffffffffffffffffffffffffffff16815260200191505060405180910390f35b3480156105ee576000806105eb612908565b50505b50610672600480360360e081101561060e5760008061060b612908565b50505b8101908080359060200190929190803590602001909291908035906020019092919080359060200190929190803563ffffffff169060200190929190803563ffffffff169060200190929190803563ffffffff169060200190929190505050611c2f565b005b34801561068957600080610686612908565b50505b506106c5600480360360208110156106a9576000806106a6612908565b50505b81019080803563ffffffff169060200190929190505050611f81565b005b3480156106dc576000806106d9612908565b50505b50610728600480360360208110156106fc576000806106f9612908565b50505b81019080803573ffffffffffffffffffffffffffffffffffffffff1690602001909291905050506120e4565b005b34801561073f5760008061073c612908565b50505b50610748612210565b604051808263ffffffff16815260200191505060405180910390f35b34801561077957600080610776612908565b50505b506107df6004803603606081101561079957600080610796612908565b50505b81019080803563ffffffff169060200190929190803573ffffffffffffffffffffffffffffffffffffffff1690602001909291908035906020019092919050505061222d565b005b3480156107f6576000806107f3612908565b50505b506108526004803603604081101561081657600080610813612908565b50505b81019080803563ffffffff169060200190929190803573ffffffffffffffffffffffffffffffffffffffff1690602001909291905050506125f8565b60405180821515815260200191505060405180910390f35b34801561087f5760008061087c612908565b50505b50610888612673565b6040518082815260200191505060405180910390f35b3480156108b3576000806108b0612908565b50505b506108ff600480360360208110156108d3576000806108d0612908565b50505b81019080803573ffffffffffffffffffffffffffffffffffffffff169060200190929190505050612687565b005b34801561091657600080610913612908565b50505b506109726004803603604081101561093657600080610933612908565b50505b81019080803563ffffffff169060200190929190803573ffffffffffffffffffffffffffffffffffffffff1690602001909291905050506128c2565b60405180821515815260200191505060405180910390f35b600360008263ffffffff1663ffffffff1681526020019081526020016000206004016004906109b7612976565b906101000a900460ff16610a1f576040517f08c379a0000000000000000000000000000000000000000000000000000000008152600401808060200182810382526026815260200180612bf96026913960400191505060405180910390610a1c612908565b50505b610a31815a610a2c6129d9565b610ca3565b341015610aaf576040517f08c379a000000000000000000000000000000000000000000000000000000000815260040180806020018281038252601b8152602001807f496e73756666696369656e74207072656d69756d20616d6f756e74000000000081525060200191505060405180910390610aac612908565b50505b610ac1815a610abc6129d9565b6125f8565b610b3c576040517f08c379a000000000000000000000000000000000000000000000000000000000815260040180806020018281038252601d8152602001807f4e6f74206120636c61696d616e74206f66207468697320706f6c69637900000081525060200191505060405180910390610b39612908565b50505b34600560008363ffffffff1663ffffffff16815260200190815260200160002060005a610b676129d9565b73ffffffffffffffffffffffffffffffffffffffff1673ffffffffffffffffffffffffffffffffffffffff16815260200190815260200160002060008282610bad612976565b019250508190610bbb612a36565b5050505a610bc7612a9b565b600660008363ffffffff1663ffffffff16815260200190815260200160002060005a610bf16129d9565b73ffffffffffffffffffffffffffffffffffffffff1673ffffffffffffffffffffffffffffffffffffffff1681526020019081526020016000208190610c35612a36565b5050505a610c416129d9565b73ffffffffffffffffffffffffffffffffffffffff168163ffffffff167fcb56b790741c56fe9689db9a11c7acfbbe5aa3e1eafa48a4eedb4969868814373460006040518083815260200182151581526020019250505060405180910390a350565b6000610cb7835a610cb26129d9565b6125f8565b610d32576040517f08c379a00000000000000000000000000000000000000000000000000000000081526004018080602001828103825260138152602001807f4e6f74206120706f6c696379206f776e6572210000000000000000000000000081525060200191505060405180910390610d2f612908565b50505b600360008463ffffffff1663ffffffff168152602001908152602001600020600401600490610d5f612976565b906101000a900460ff16610de4576040517f08c379a00000000000000000000000000000000000000000000000000000000081526004018080602001828103825260148152602001807f506f6c6963792069736e2774206163746976652100000000000000000000000081525060200191505060405180910390610de1612908565b50505b6000600660008563ffffffff1663ffffffff16815260200190815260200160002060008473ffffffffffffffffffffffffffffffffffffffff1673ffffffffffffffffffffffffffffffffffffffff168152602001908152602001600020610e4a612976565b11610ec6576040517f08c379a00000000000000000000000000000000000000000000000000000000081526004018080602001828103825260198152602001807f4e6f2070726576696f7573207061796d656e7420666f756e640000000000000081525060200191505060405180910390610ec3612908565b50505b6000600660008563ffffffff1663ffffffff16815260200190815260200160002060008473ffffffffffffffffffffffffffffffffffffffff1673ffffffffffffffffffffffffffffffffffffffff168152602001908152602001600020610f2c612976565b5a610f35612a9b565b03905060006018603c808481610f4757fe5b0481610f4f57fe5b0481610f5757fe5b0490506000601e600360008863ffffffff1663ffffffff168152602001908152602001600020600301610f88612976565b81610f8f57fe5b049050600081830290506000600360008963ffffffff1663ffffffff168152602001908152602001600020600301610fc5612976565b905081810190506000601e8581610fd857fe5b049050600360008a63ffffffff1663ffffffff168152602001908152602001600020600401600990611008612976565b906101000a900463ffffffff1663ffffffff168111156110c2576000600360008b63ffffffff1663ffffffff168152602001908152602001600020600401600590611051612976565b906101000a900463ffffffff1663ffffffff1690506000600360008c63ffffffff1663ffffffff168152602001908152602001600020600401600990611095612976565b906101000a900463ffffffff1663ffffffff168303905060648183860202816110ba57fe5b048401935050505b81965050505050505092915050565b600360008263ffffffff1663ffffffff1681526020019081526020016000206004016004906110fe612976565b906101000a900460ff16611183576040517f08c379a00000000000000000000000000000000000000000000000000000000081526004018080602001828103825260148152602001807f506f6c696379206973206e6f742061637469766500000000000000000000000081525060200191505060405180910390611180612908565b50505b600360008263ffffffff1663ffffffff1681526020019081526020016000206001016111ad612976565b34101561122b576040517f08c379a00000000000000000000000000000000000000000000000000000000081526004018080602001828103825260168152602001807f43616e2774206166666f7264207468652072617465210000000000000000000081525060200191505060405180910390611228612908565b50505b34600560008363ffffffff1663ffffffff16815260200190815260200160002060005a6112566129d9565b73ffffffffffffffffffffffffffffffffffffffff1673ffffffffffffffffffffffffffffffffffffffff1681526020019081526020016000206000828261129c612976565b0192505081906112aa612a36565b5050506001600460008363ffffffff1663ffffffff16815260200190815260200160002060005a6112d96129d9565b73ffffffffffffffffffffffffffffffffffffffff1673ffffffffffffffffffffffffffffffffffffffff16815260200190815260200160002060006101000a81611322612976565b8160ff02191690831515021790611337612a36565b5050505a611343612a9b565b600660008363ffffffff1663ffffffff16815260200190815260200160002060005a61136d6129d9565b73ffffffffffffffffffffffffffffffffffffffff1673ffffffffffffffffffffffffffffffffffffffff16815260200190815260200160002081906113b1612a36565b5050505a6113bd6129d9565b73ffffffffffffffffffffffffffffffffffffffff168163ffffffff167fcb56b790741c56fe9689db9a11c7acfbbe5aa3e1eafa48a4eedb4969868814373460016040518083815260200182151581526020019250505060405180910390a350565b60036020528060005260406000206000915090508060000161143f612976565b908060010161144c612976565b9080600201611459612976565b9080600301611466612976565b9080600401600090611476612976565b906101000a900463ffffffff169080600401600490611493612976565b906101000a900460ff1690806004016005906114ad612976565b906101000a900463ffffffff1690806004016009906114ca612976565b906101000a900463ffffffff16905088565b600660205281600052604060002060205280600052604060002060009150915050611505612976565b81565b600560205281600052604060002060205280600052604060002060009150915050611531612976565b81565b61153c6128f8565b73ffffffffffffffffffffffffffffffffffffffff1660008061155d612976565b906101000a900473ffffffffffffffffffffffffffffffffffffffff1673ffffffffffffffffffffffffffffffffffffffff161461160c576040517f08c379a00000000000000000000000000000000000000000000000000000000081526004018080602001828103825260208152602001807f4f776e61626c653a2063616c6c6572206973206e6f7420746865206f776e657281525060200191505060405180910390611609612908565b50505b84600360008863ffffffff1663ffffffff1681526020019081526020016000206000018190611639612a36565b50505083600360008863ffffffff1663ffffffff1681526020019081526020016000206001018190611669612a36565b50505082600360008863ffffffff1663ffffffff16815260200190815260200160002060040160006101000a8161169e612976565b8163ffffffff021916908363ffffffff160217906116ba612a36565b50505080600360008863ffffffff1663ffffffff16815260200190815260200160002060040160056101000a816116ef612976565b8163ffffffff021916908363ffffffff1602179061170b612a36565b50505081600360008863ffffffff1663ffffffff16815260200190815260200160002060040160096101000a81611740612976565b8163ffffffff021916908363ffffffff1602179061175c612a36565b5050507fbe829975d2c0d9995edbd0abc0cbd073add0fde193595b70af3c8e9094c00ac886868686604051808563ffffffff1681526020018481526020018381526020018263ffffffff16815260200194505050505060405180910390a1505050505050565b600080600360008563ffffffff1663ffffffff16815260200190815260200160002060405180610100016040529081600082016117fd612976565b81526020016001820161180e612976565b81526020016002820161181f612976565b815260200160038201611830612976565b815260200160048201600090611844612976565b906101000a900463ffffffff1663ffffffff1663ffffffff16815260200160048201600490611871612976565b906101000a900460ff1615151515815260200160048201600590611893612976565b906101000a900463ffffffff1663ffffffff1663ffffffff168152602001600482016009906118c0612976565b906101000a900463ffffffff1663ffffffff1663ffffffff168152505090508060a0015161195f576040517f08c379a00000000000000000000000000000000000000000000000000000000081526004018080602001828103825260148152602001807f506f6c696379206973206e6f74206163746976650000000000000000000000008152506020019150506040518091039061195c612908565b50505b6000816040015182602001518360000151028161197857fe5b0490506000600560008763ffffffff1663ffffffff16815260200190815260200160002060008673ffffffffffffffffffffffffffffffffffffffff1673ffffffffffffffffffffffffffffffffffffffff1681526020019081526020016000206119e1612976565b905060006119ed612673565b9050600081856020015184030290506000818501905080965050505050505092915050565b6000600360008363ffffffff1663ffffffff168152602001908152602001600020600401600490611a41612976565b906101000a900460ff169050919050565b611a5a6128f8565b73ffffffffffffffffffffffffffffffffffffffff16600080611a7b612976565b906101000a900473ffffffffffffffffffffffffffffffffffffffff1673ffffffffffffffffffffffffffffffffffffffff1614611b2a576040517f08c379a00000000000000000000000000000000000000000000000000000000081526004018080602001828103825260208152602001807f4f776e61626c653a2063616c6c6572206973206e6f7420746865206f776e657281525060200191505060405180910390611b27612908565b50505b600073ffffffffffffffffffffffffffffffffffffffff16600080611b4d612976565b906101000a900473ffffffffffffffffffffffffffffffffffffffff1673ffffffffffffffffffffffffffffffffffffffff167f8be0079c531659141344cd1fd0a4f28419497f9722a3daafe3b4186f6b6457e060405160405180910390a360008060006101000a81611bbe612976565b8173ffffffffffffffffffffffffffffffffffffffff021916908373ffffffffffffffffffffffffffffffffffffffff16021790611bfa612a36565b505050565b600080600090611c0d612976565b906101000a900473ffffffffffffffffffffffffffffffffffffffff16905090565b611c376128f8565b73ffffffffffffffffffffffffffffffffffffffff16600080611c58612976565b906101000a900473ffffffffffffffffffffffffffffffffffffffff1673ffffffffffffffffffffffffffffffffffffffff1614611d07576040517f08c379a00000000000000000000000000000000000000000000000000000000081526004018080602001828103825260208152602001807f4f776e61626c653a2063616c6c6572206973206e6f7420746865206f776e657281525060200191505060405180910390611d04612908565b50505b6040518061010001604052808881526020018781526020018681526020018581526020018463ffffffff1681526020016001151581526020018363ffffffff1681526020018263ffffffff16815250600360006007600090611d67612976565b906101000a900463ffffffff1663ffffffff1663ffffffff168152602001908152602001600020600082015181600001611d9f612a36565b5050602082015181600101611db2612a36565b5050604082015181600201611dc5612a36565b5050606082015181600301611dd8612a36565b505060808201518160040160006101000a81611df2612976565b8163ffffffff021916908363ffffffff16021790611e0e612a36565b50505060a08201518160040160046101000a81611e29612976565b8160ff02191690831515021790611e3e612a36565b50505060c08201518160040160056101000a81611e59612976565b8163ffffffff021916908363ffffffff16021790611e75612a36565b50505060e08201518160040160096101000a81611e90612976565b8163ffffffff021916908363ffffffff16021790611eac612a36565b5050509050507f19bb034335e290edb4dfdd4b94706d99fb766d7512bd8836347f261943bd98e26007600090611ee0612976565b906101000a900463ffffffff16888886604051808563ffffffff1681526020018481526020018381526020018263ffffffff16815260200194505050505060405180910390a160076000818190611f35612976565b906101000a900463ffffffff168092919060010191906101000a81611f58612976565b8163ffffffff021916908363ffffffff16021790611f74612a36565b5050505050505050505050565b611f896128f8565b73ffffffffffffffffffffffffffffffffffffffff16600080611faa612976565b906101000a900473ffffffffffffffffffffffffffffffffffffffff1673ffffffffffffffffffffffffffffffffffffffff1614612059576040517f08c379a00000000000000000000000000000000000000000000000000000000081526004018080602001828103825260208152602001807f4f776e61626c653a2063616c6c6572206973206e6f7420746865206f776e657281525060200191505060405180910390612056612908565b50505b6000600360008363ffffffff1663ffffffff16815260200190815260200160002060040160046101000a8161208c612976565b8160ff021916908315150217906120a1612a36565b5050507fc5dfab0962c70e9a4416c78094b25bf915c7d3198f89974c6ddc52306e4df42481604051808263ffffffff16815260200191505060405180910390a150565b6120ec6128f8565b73ffffffffffffffffffffffffffffffffffffffff1660008061210d612976565b906101000a900473ffffffffffffffffffffffffffffffffffffffff1673ffffffffffffffffffffffffffffffffffffffff16146121bc576040517f08c379a00000000000000000000000000000000000000000000000000000000081526004018080602001828103825260208152602001807f4f776e61626c653a2063616c6c6572206973206e6f7420746865206f776e6572815250602001915050604051809103906121b9612908565b50505b80600260006101000a816121ce612976565b8173ffffffffffffffffffffffffffffffffffffffff021916908373ffffffffffffffffffffffffffffffffffffffff1602179061220a612a36565b50505050565b600760009061221d612976565b906101000a900463ffffffff1681565b60026001612239612976565b14156122b6576040517f08c379a000000000000000000000000000000000000000000000000000000000815260040180806020018281038252601f8152602001807f5265656e7472616e637947756172643a207265656e7472616e742063616c6c00815250602001915050604051809103906122b3612908565b50505b6002600181906122c4612a36565b50505060026000906122d4612976565b906101000a900473ffffffffffffffffffffffffffffffffffffffff1673ffffffffffffffffffffffffffffffffffffffff165a6123106129d9565b73ffffffffffffffffffffffffffffffffffffffff1614612385576040517f08c379a0000000000000000000000000000000000000000000000000000000008152600401808060200182810382526021815260200180612c456021913960400191505060405180910390612382612908565b50505b600360008463ffffffff1663ffffffff1681526020019081526020016000206004016004906123b2612976565b906101000a900460ff16612437576040517f08c379a00000000000000000000000000000000000000000000000000000000081526004018080602001828103825260148152602001807f506f6c696379206973206e6f742061637469766500000000000000000000000081525060200191505060405180910390612434612908565b50505b600460008463ffffffff1663ffffffff16815260200190815260200160002060008373ffffffffffffffffffffffffffffffffffffffff1673ffffffffffffffffffffffffffffffffffffffff16815260200190815260200160002060009061249e612976565b906101000a900460ff16612523576040517f08c379a00000000000000000000000000000000000000000000000000000000081526004018080602001828103825260128152602001807f4e6f74206120706f6c696379206f776e6572000000000000000000000000000081525060200191505060405180910390612520612908565b50505b8173ffffffffffffffffffffffffffffffffffffffff166108fc600560008663ffffffff1663ffffffff16815260200190815260200160002060008573ffffffffffffffffffffffffffffffffffffffff1673ffffffffffffffffffffffffffffffffffffffff1681526020019081526020016000206125a1612976565b90811502906040516000604051808303818588886125bd612af8565b50505050505093505050501580156125e2573d6000803e3d60006125df612908565b50505b5060018081906125f0612a36565b505050505050565b6000600460008463ffffffff1663ffffffff16815260200190815260200160002060008373ffffffffffffffffffffffffffffffffffffffff1673ffffffffffffffffffffffffffffffffffffffff168152602001908152602001600020600090612661612976565b906101000a900460ff16905092915050565b600080600290506000819050809250505090565b61268f6128f8565b73ffffffffffffffffffffffffffffffffffffffff166000806126b0612976565b906101000a900473ffffffffffffffffffffffffffffffffffffffff1673ffffffffffffffffffffffffffffffffffffffff161461275f576040517f08c379a00000000000000000000000000000000000000000000000000000000081526004018080602001828103825260208152602001807f4f776e61626c653a2063616c6c6572206973206e6f7420746865206f776e65728152506020019150506040518091039061275c612908565b50505b600073ffffffffffffffffffffffffffffffffffffffff168173ffffffffffffffffffffffffffffffffffffffff1614156127ee576040517f08c379a0000000000000000000000000000000000000000000000000000000008152600401808060200182810382526026815260200180612c1f60269139604001915050604051809103906127eb612908565b50505b8073ffffffffffffffffffffffffffffffffffffffff16600080612810612976565b906101000a900473ffffffffffffffffffffffffffffffffffffffff1673ffffffffffffffffffffffffffffffffffffffff167f8be0079c531659141344cd1fd0a4f28419497f9722a3daafe3b4186f6b6457e060405160405180910390a3806000806101000a81612880612976565b8173ffffffffffffffffffffffffffffffffffffffff021916908373ffffffffffffffffffffffffffffffffffffffff160217906128bc612a36565b50505050565b6004602052816000526040600020602052806000526040600020600091509150906128eb612976565b906101000a900460ff1681565b60005a6129036129d9565b905090565b632a2a7adb598160e01b8152600481016020815285602082015260005b86811015612943578086015181604084010152602081019050612925565b506020828760640184336000905af158600e01573d6000803e3d6000fd5b3d6001141558600a015760016000f35b505050565b6303daa959598160e01b8152836004820152602081602483336000905af158600e01573d6000803e3d6000fd5b3d6001141558600a015760016000f35b8051935060005b60408110156129d4576000818301526020810190506129ba565b505050565b6373509064598160e01b8152602081600483336000905af158600e01573d6000803e3d6000fd5b3d6001141558600a015760016000f35b8051935060005b6040811015612a3157600081830152602081019050612a17565b505050565b6322bd64c0598160e01b8152836004820152846024820152600081604483336000905af158600e01573d6000803e3d6000fd5b3d6001141558600a015760016000f35b60005b6040811015612a9657600081830152602081019050612a7c565b505050565b63bdbf8c36598160e01b8152602081600483336000905af158600e01573d6000803e3d6000fd5b3d6001141558600a015760016000f35b8051935060005b6040811015612af357600081830152602081019050612ad9565b505050565b6385979f76598160e01b8152612b37565b600081905081831115612b1a578290505b92915050565b600081905081831015612b31578290505b92915050565b836004820152846024820152606060448201528760648201526084810160005b89811015612b72578089015181830152602081019050612b57565b506060828a60a40184336000905af158600e01573d6000803e3d6000fd5b3d6001141558600a015760016000f35b815160408301513d6000853e8c8c82606087013350600060045af15059612bc78e3d612b20565b8d01612bd38187612b09565b5b82811015612beb5760008152602081019050612bd4565b50839e505050505050505056fe506f6c69637920646f6573206e6f74206578697374206f72206973206e6f74206163746976654f776e61626c653a206e6577206f776e657220697320746865207a65726f206164647265737343616c6c6572206973206e6f7420746865205061796f757420636f6e7472616374",
  "linkReferences": {},
  "deployedLinkReferences": {}
}